:100000000C942A000C9447000C9447000C94470071
:100010000C9447000C9447000C94E2140C94470095
:100020000C9447000C9447000C9447000C947114F6
:100030000C9447000C9447000C9447000C94470024
:100040000C9447000C9447000C9447000C94470014
:100050000C94470011241FBECFE5D4E0DEBFCDBF16
:1000600011E0A0E6B0E0E8E9F7E302C005900D92E8
:10007000AE39B107D9F712E0AEE9B1E001C01D9287
:10008000A93DB107E1F70E94FC140C94CA1B0C9423
:10009000000090BD89B96115710591F1599A8AB135
:1000A00088618AB980B5866880BD1092CF021092AF
:1000B000CE021092D6021092D50257981092D30217
:1000C0001092D2028091D2029091D3029093D102E9
:1000D0008093D00210929F0110929E0180919E0108
:1000E00090919F019093A1018093A001E091D20291
:1000F000F091D302EE55FE4F1082579A78940895EE
:100100005998CDCF57981092D3021092D202809175
:10011000D2029091D3029093D1028093D002109298
:100120009F0110929E0180919E0190919F0190935A
:10013000A1018093A001E091D202F091D302EE558B
:10014000FE4F1082089557980895579A0895FF9288
:100150000F931F93DF93CF9300D00F92CDB7DEB7ED
:100160008C01F62E80E061E040E650E00E94131B17
:100170004FEF51EE64E0415050406040E1F700C065
:1001800000006FEF71EE84E0615070408040E1F755
:1001900000C000008FEF91EEA4E081509040A0409D
:1001A000E1F700C000004FEF51EE64E041505040D5
:1001B0006040E1F700C000006FEF71EE84E0615035
:1001C00070408040E1F700C000008FEF91EEA4E0A6
:1001D00081509040A040E1F700C000004FEF51EE89
:1001E00064E0415050406040E1F700C000006FEF14
:1001F00071EE84E0615070408040E1F700C0000083
:100200008FEF91EEA4E081509040A040E1F700C054
:1002100000004FEF51EE64E0415050406040E1F784
:1002200000C0000057988091270190912801909379
:10023000D8028093D70283E08093D4021092D10237
:100240001092D002579A21E030E002C0220F331FF3
:10025000FA94E2F7D8018D919C911197822B932B00
:100260004FEF51EE64E0415050406040E1F700C074
:1002700000004FEF51EE64E0415050406040E1F724
:1002800000C000004FEF51EE64E04150504060402C
:10029000E1F700C000004FEF51EE64E041505040E4
:1002A0006040E1F700C000004FEF51EE64E04150C4
:1002B00050406040E1F700C000004FEF51EE64E0B5
:1002C000415050406040E1F700C000004FEF51EE58
:1002D00064E0415050406040E1F700C000004FEF43
:1002E00051EE64E0415050406040E1F700C0000032
:1002F0004FEF51EE64E0415050406040E1F700C0E4
:1003000000004FEF51EE64E0415050406040E1F793
:1003100000C000004FEF51EE64E04150504060409B
:10032000E1F700C000004FEF51EE64E04150504053
:100330006040E1F700C000004FEF51EE64E0415033
:1003400050406040E1F700C000004FEF51EE64E024
:10035000415050406040E1F700C000004FEF51EEC7
:1003600064E0415050406040E1F700C000004FEFB2
:1003700051EE64E0415050406040E1F700C00000A1
:100380004FEF51EE64E0415050406040E1F700C053
:1003900000004FEF51EE64E0415050406040E1F703
:1003A00000C000004FEF51EE64E04150504060400B
:1003B000E1F700C000004FEF51EE64E041505040C3
:1003C0006040E1F700C000004FEF51EE64E04150A3
:1003D00050406040E1F700C000004FEF51EE64E094
:1003E000415050406040E1F700C000004FEF51EE37
:1003F00064E0415050406040E1F700C000004FEF22
:1004000051EE64E0415050406040E1F700C0000010
:100410004FEF51EE64E0415050406040E1F700C0C2
:1004200000004FEF51EE64E0415050406040E1F772
:1004300000C000004FEF51EE64E04150504060407A
:10044000E1F700C000004FEF51EE64E04150504032
:100450006040E1F700C000004FEF51EE64E0415012
:1004600050406040E1F700C000004FEF51EE64E003
:10047000415050406040E1F700C0000020953095A9
:100480008223932311969C938E931092CF02109205
:10049000CE0280919E0190919F01009779F5809105
:1004A000CE029091CF028332910540F58E010F5F0D
:1004B0001F4F07C08091CE029091CF0283329105E9
:1004C000E8F48091CE029091CF02B8014AE050E06A
:1004D0000E94851B8EE061E0A8010E94131B4FEF74
:1004E00051EE64E0415050406040E1F700C0000030
:1004F00080919E0190919F010097E1F280919E0171
:1005000090919F01181619060CF0DEC210929F01FF
:1005100010929E0157988091250190912601909309
:10052000D8028093D70282E08093D4021092D10245
:100530001092D0026FEF71EE84E061507040804005
:10054000E1F700C000008FEF91EEA4E081509040F1
:10055000A040E1F700C000004FEF51EE64E04150D1
:1005600050406040E1F700C000006FEF71EE84E0A2
:10057000615070408040E1F700C000008FEF91EEC5
:10058000A4E081509040A040E1F700C000004FEF90
:1005900051EE64E0415050406040E1F700C000007F
:1005A0006FEF71EE84E0615070408040E1F700C071
:1005B00000008FEF91EEA4E081509040A040E1F761
:1005C00000C000004FEF51EE64E0415050406040E9
:1005D000E1F700C000006FEF71EE84E06150704001
:1005E0008040E1F700C0000080E061E04DE650E0AF
:1005F0000E94131B8FEF91EEA4E081509040A04029
:10060000E1F700C000004FEF51EE64E04150504070
:100610006040E1F700C000006FEF71EE84E06150D0
:1006200070408040E1F700C000008FEF91EEA4E041
:1006300081509040A040E1F700C000004FEF51EE24
:1006400064E0415050406040E1F700C000006FEFAF
:1006500071EE84E0615070408040E1F700C000001E
:100660008FEF91EEA4E081509040A040E1F700C0F0
:1006700000004FEF51EE64E0415050406040E1F720
:1006800000C000006FEF71EE84E061507040804068
:10069000E1F700C000008FEF91EEA4E081509040A0
:1006A000A040E1F700C00000EEE3F1E08E010F5F33
:1006B0001F4F2081222371F031965D9907C089EE8A
:1006C0009DEF02C00197A9F35D9BFCCF2CB920815F
:1006D000222391F7579A1092CF021092CE02809166
:1006E0009E0190919F010097F1F024C08091CE026D
:1006F0009091CF02B8014AE050E00E94851B8EE045
:1007000061E0A8010E94131B8FEF91EEA4E08150DD
:100710009040A040E1F700C0000080919E019091C0
:100720009F01009739F48091CE029091CF028730DB
:100730009105E0F280919E0190919F011816190693
:100740000CF076C110929F0110929E0157988091F3
:100750002301909124019093D8028093D70281E0E5
:100760008093D4021092D1021092D002E8E3F1E01B
:100770002191222369F05D9907C089EE9DEF02C0A7
:100780000197B1F35D9BFCCF2CB92191222399F7FE
:10079000579A1092CF021092CE0280919E019091B2
:1007A0009F01009779F58091CE029091CF0285301C
:1007B000910540F58E010F5F1F4F07C08091CE025B
:1007C0009091CF0285309105E8F48091CE0290910E
:1007D000CF02B8014AE050E00E94851B8EE061E044
:1007E000A8010E94131B4FEF51EE64E041505040AE
:1007F0006040E1F700C0000080919E0190919F0150
:100800000097E1F280919E0190919F0118161906C0
:100810000CF031C110929F0110929E01E8E4F1E0CA
:100820002191222369F05D9907C089EE9DEF02C0F6
:100830000197B1F35D9BFCCF2CB92191222399F74D
:10084000579A1092CF021092CE0280919E01909101
:100850009F01009779F58091CE029091CF0285306B
:10086000910540F58E010F5F1F4F07C08091CE02AA
:100870009091CF0285309105E8F48091CE0290915D
:10088000CF02B8014AE050E00E94851B8EE061E093
:10089000A8010E94131B6FEF71EE84E0615070405D
:1008A0008040E1F700C0000080919E0190919F017F
:1008B0000097E1F280919E0190919F011816190610
:1008C0000CF0D9C010929F0110929E01E6E6F1E073
:1008D0002191222369F05D9907C089EE9DEF02C046
:1008E0000197B1F35D9BFCCF2CB92191222399F79D
:1008F000579A1092CF021092CE0280919E01909151
:100900009F01009779F58091CE029091CF028830B7
:10091000910540F58E010F5F1F4F07C08091CE02F9
:100920009091CF0288309105E8F48091CE029091A9
:10093000CF02B8014AE050E00E94851B8EE061E0E2
:10094000A8010E94131B8FEF91EEA4E0815090400C
:10095000A040E1F700C0000080919E0190919F01AE
:100960000097E1F280919E0190919F01181619065F
:100970000CF081C010929F0110929E01E3E5F1E01E
:100980002191222369F05D9907C089EE9DEF02C095
:100990000197B1F35D9BFCCF2CB92191222399F7EC
:1009A000579A1092CF021092CE0280919E019091A0
:1009B0009F01009779F58091CE029091CF02883007
:1009C000910540F58E010F5F1F4F07C08091CE0249
:1009D0009091CF0288309105E8F48091CE029091F9
:1009E000CF02B8014AE050E00E94851B8EE061E032
:1009F000A8010E94131B4FEF51EE64E0415050409C
:100A00006040E1F700C0000080919E0190919F013D
:100A10000097E1F280919E0190919F0118161906AE
:100A200054F510929F0110929E0181E090E043C026
:100A300057981092D3021092D2028091D2029091D4
:100A4000D3029093D1028093D00210929F01109212
:100A50009E0180919E0190919F019093A1018093AE
:100A6000A001E091D202F091D302EE55FE4F108228
:100A7000EEE3F1E01ECE57981092D3021092D2020C
:100A80008091D2029091D3029093D1028093D002B0
:100A900010929F0110929E0180919E0190919F0162
:100AA0009093A1018093A001E091D202F091D30232
:100AB000EE55FE4F10820F900F900F90CF91DF9167
:100AC0001F910F91FF90089557981092D3021092A2
:100AD000D2028091D2029091D3029093D10280935E
:100AE000D00210929F0110929E0180919E019091E0
:100AF0009F019093A1018093A001E091D202F09117
:100B0000D302EE55FE4F108280E061E04DE750E0E9
:100B10000E94131B4FEF51EE64E041505040604083
:100B2000E1F700C000006FEF71EE84E061507040AB
:100B30008040E1F700C000008FEF91EEA4E081500B
:100B40009040A040E1F700C000004FEF51EE64E09C
:100B5000415050406040E1F700C000006FEF71EE7F
:100B600084E0615070408040E1F700C000008FEFEA
:100B700091EEA4E081509040A040E1F700C0000059
:100B80004FEF51EE64E0415050406040E1F700C04B
:100B900000006FEF71EE84E0615070408040E1F73B
:100BA00000C000008FEF91EEA4E081509040A04083
:100BB000E1F700C000004FEF51EE64E041505040BB
:100BC0006040E1F700C000006FEF71EE84E061501B
:100BD00070408040E1F700C000008FEF91EEA4E08C
:100BE00081509040A040E1F700C000004FEF51EE6F
:100BF00064E0415050406040E1F700C000006FEFFA
:100C000071EE84E0615070408040E1F700C0000068
:100C10008FEF91EEA4E081509040A040E1F700C03A
:100C200000004FEF51EE64E0415050406040E1F76A
:100C300000C000006FEF71EE84E0615070408040B2
:100C4000E1F700C000008FEF91EEA4E081509040EA
:100C5000A040E1F700C000004FEF51EE64E04150CA
:100C600050406040E1F700C000006FEF71EE84E09B
:100C7000615070408040E1F700C000008FEF91EEBE
:100C8000A4E081509040A040E1F700C000004FEF89
:100C900051EE64E0415050406040E1F700C0000078
:100CA0006FEF71EE84E0615070408040E1F700C06A
:100CB00000008FEF91EEA4E081509040A040E1F75A
:100CC00000C000004FEF51EE64E0415050406040E2
:100CD000E1F700C000006FEF71EE84E061507040FA
:100CE0008040E1F700C000008FEF91EEA4E081505A
:100CF0009040A040E1F700C000004FEF51EE64E0EB
:100D0000415050406040E1F700C000006FEF71EECD
:100D100084E0615070408040E1F700C000008FEF38
:100D200091EEA4E081509040A040E1F700C00000A7
:100D30004FEF51EE64E0415050406040E1F700C099
:100D400000006FEF71EE84E0615070408040E1F789
:100D500000C000008FEF91EEA4E081509040A040D1
:100D6000E1F700C000004FEF51EE64E04150504009
:100D70006040E1F700C000006FEF71EE84E0615069
:100D800070408040E1F700C000008FEF91EEA4E0DA
:100D900081509040A040E1F700C000004FEF51EEBD
:100DA00064E0415050406040E1F700C000006FEF48
:100DB00071EE84E0615070408040E1F700C00000B7
:100DC0008FEF91EEA4E081509040A040E1F700C089
:100DD00000004FEF51EE64E0415050406040E1F7B9
:100DE00000C000006FEF71EE84E061507040804001
:100DF000E1F700C000008FEF91EEA4E08150904039
:100E0000A040E1F700C000004FEF51EE64E0415018
:100E100050406040E1F700C000006FEF71EE84E0E9
:100E2000615070408040E1F700C000008FEF91EE0C
:100E3000A4E081509040A040E1F700C000004FEFD7
:100E400051EE64E0415050406040E1F700C00000C6
:100E50006FEF71EE84E0615070408040E1F700C0B8
:100E600000008FEF91EEA4E081509040A040E1F7A8
:100E700000C000004FEF51EE64E041505040604030
:100E8000E1F700C000006FEF71EE84E06150704048
:100E90008040E1F700C000000ECE5798E82FF0E048
:100EA000EE0FFF1FEF5DFE4F208131813093D8029E
:100EB0002093D7028093D4021092D1021092D002D4
:100EC0000895E82FF92F2191222369F05D9907C039
:100ED00089EE9DEF02C00197B1F35D9BFCCF2CB969
:100EE0002191222399F708955D9908C029EE3DEFDD
:100EF00003C02150304021F05D9BFBCF8CB9089599
:100F00008FEF9FEF0895EF92FF920F931F93DF9360
:100F1000CF9300D00F92CDB7DEB77C011092CF02F5
:100F20001092CE0280919E0190919F01009779F5D9
:100F30008091CE029091CF028E159F0540F58E01D3
:100F40000F5F1F4F07C08091CE029091CF028E1588
:100F50009F05E8F48091CE029091CF02B8014AE05B
:100F600050E00E94851B8EE061E0A8010E94131BE7
:100F70008FEF91EEA4E081509040A040E1F700C0D7
:100F8000000080919E0190919F010097E1F2809175
:100F90009E0190919F01181619068CF410929F01E2
:100FA00010929E0121E030E0C9010F900F900F9048
:100FB000CF91DF911F910F91FF90EF900895579877
:100FC0001092D3021092D2028091D2029091D30259
:100FD0009093D1028093D00210929F0110929E01B3
:100FE00080919E0190919F019093A1018093A00117
:100FF000E091D202F091D302EE55FE4F108220E034
:1010000030E0D2CFEF92FF920F931F93DF93CF93F5
:1010100000D00F92CDB7DEB77C01579880912B019D
:1010200090912C019093D8028093D70285E0809311
:10103000D4021092D1021092D002EEE7F1E0219199
:10104000222369F05D9907C089EE9DEF02C00197E8
:10105000B1F35D9BFCCF2CB92191222399F7E62FA8
:10106000F72F8191882371F05D9908C029EE3DEF3B
:1010700003C021503040A9F35D9BFBCF8CB9819117
:10108000882391F7EAE8F0E08191882371F05D9977
:1010900008C029EE3DEF03C021503040A9F35D9B0D
:1010A000FBCF8CB98191882391F7579A1092CF0288
:1010B0001092CE0280919E0190919F01009779F548
:1010C0008091CE029091CF028630910540F58E013D
:1010D0000F5F1F4F07C08091CE029091CF028630E4
:1010E0009105E8F48091CE029091CF02B8014AE0D8
:1010F00050E00E94851B8EE061E0A8010E94131B56
:101100008FEF91EEA4E081509040A040E1F700C045
:10111000000080919E0190919F010097E1F28091E3
:101120009E0190919F01181619060CF082C0109232
:101130009F0110929E015798809123019091240164
:101140009093D8028093D70281E08093D4021092CA
:10115000D1021092D002EE2DFF2D2191222369F0B1
:101160005D9907C089EE9DEF02C00197B1F35D9BC9
:10117000FCCF2CB92191222399F75D9907C089EE04
:101180009DEF02C0019721F05D9BFCCF8AE18CB9F5
:10119000579A1092CF021092CE0280919E019091A8
:1011A0009F01009779F58091CE029091CF028E3108
:1011B000910540F58E010F5F1F4F07C08091CE0251
:1011C0009091CF028E319105E8F48091CE029091FA
:1011D000CF02B8014AE050E00E94851B8EE061E03A
:1011E000A8010E94131B8FEF91EEA4E08150904064
:1011F000A040E1F700C0000080919E0190919F0106
:101200000097E1F280919E0190919F0118161906B6
:1012100084F410929F0110929E0181E090E00F9063
:101220000F900F90CF91DF911F910F91FF90EF9052
:10123000089557981092D3021092D2028091D20250
:101240009091D3029093D1028093D00210929F018B
:1012500010929E0180919E0190919F019093A10117
:101260008093A001E091D202F091D302EE55FE4F9F
:101270001082D5CFDF92EF92FF920F931F93DF93EF
:10128000CF9300D00F92CDB7DEB724E0E22EF12C41
:10129000DD24D3948E010F5F1F4F57981092D30215
:1012A0001092D2028091D2029091D3029093D102F7
:1012B0008093D00210929F0110929E0180919E0116
:1012C00090919F019093A1018093A001E091D2029F
:1012D000F091D302EE55FE4F108257988091230172
:1012E000909124019093D8028093D702D092D40297
:1012F0001092D1021092D002EFE2F1E0219122236C
:1013000069F05D9907C089EE9DEF02C00197B1F3C6
:101310005D9BFCCF2CB92191222399F7579A10920B
:10132000CF021092CE0280919E0190919F01009772
:10133000F1F024C08091CE029091CF02B8014AE032
:1013400050E00E94851B8EE061E0A8010E94131B03
:101350002FEF31EE44E0215030404040E1F700C033
:10136000000080919E0190919F01009739F4809137
:10137000CE029091CF0288309105E0F280919E01DB
:1013800090919F01181619060CF06FC010929F01E2
:1013900010929E0180E061E04DE850E00E94131B36
:1013A0008FEF91EEA4E081509040A040E1F700C0A3
:1013B00000002FEF31EE44E0215030404040E1F793
:1013C00000C000008FEF91EEA4E081509040A0405B
:1013D000E1F700C000002FEF31EE44E02150304033
:1013E0004040E1F700C000008FEF91EEA4E0815093
:1013F0009040A040E1F700C000002FEF31EE44E044
:10140000215030404040E1F700C000008FEF91EEE6
:10141000A4E081509040A040E1F700C000002FEF11
:1014200031EE44E0215030404040E1F700C0000080
:101430008FEF91EEA4E081509040A040E1F700C012
:1014400000002FEF31EE44E0215030404040E1F702
:1014500000C000000F900F900F90CF91DF911F916F
:101460000F91FF90EF90DF90089557981092D3025C
:101470001092D2028091D2029091D3029093D10225
:101480008093D00210929F0110929E0180919E0144
:1014900090919F019093A1018093A001E091D202CD
:1014A000F091D302EE55FE4F10821092CF021092AF
:1014B000CE020894E108F108E114F10441F08091B2
:1014C000CE029091CF0288309105C8F3E6CE80E03D
:1014D00061E043E950E00E94131B8FEF91EEA4E01E
:1014E00081509040A040E1F700C000002FEF31EEA6
:1014F00044E0215030404040E1F700C000008FEF51
:1015000091EEA4E081509040A040E1F700C00000BF
:101510002FEF31EE44E0215030404040E1F700C071
:1015200000008FEF91EEA4E081509040A040E1F7E1
:1015300000C000002FEF31EE44E021503040404029
:10154000E1F700C000008FEF91EEA4E081509040E1
:10155000A040E1F700C000002FEF31EE44E0215041
:1015600030404040E1F700C000008FEF91EEA4E072
:1015700081509040A040E1F700C000002FEF31EE15
:1015800044E0215030404040E1F700C000008FEFC0
:1015900091EEA4E081509040A040E1F700C000002F
:1015A0002FEF31EE44E0215030404040E1F700C0E1
:1015B00000008FEF91EEA4E081509040A040E1F751
:1015C00000C000002FEF31EE44E021503040404099
:1015D000E1F700C000008FEF91EEA4E08150904051
:1015E000A040E1F700C000002FEF31EE44E02150B1
:1015F00030404040E1F700C000008FEF91EEA4E0E2
:1016000081509040A040E1F700C000002FEF31EE84
:1016100044E0215030404040E1F700C000008FEF2F
:1016200091EEA4E081509040A040E1F700C000009E
:101630002FEF31EE44E0215030404040E1F700C050
:101640000000579880912D0190912E019093D8021F
:101650008093D70286E08093D4021092D102109238
:10166000D002579AC69A1092CF021092CE02809161
:101670009E0190919F01009779F58091CE02909103
:10168000CF028C30910540F58E010F5F1F4F07C0D0
:101690008091CE029091CF028C309105E8F4809138
:1016A000CE029091CF02B8014AE050E00E94851B23
:1016B0008EE061E0A8010E94131B8FEF91EEA4E081
:1016C00081509040A040E1F700C0000080919E0151
:1016D00090919F010097E1F280919E0190919F016E
:1016E000181619060CF07EC410929F0110929E01EC
:1016F000C19880E061E040E650E00E94131B2FEFAC
:1017000031EE44E0215030404040E1F700C000009D
:101710008FEF91EEA4E081509040A040E1F700C02F
:1017200000002FEF31EE44E0215030404040E1F71F
:1017300000C000008FEF91EEA4E081509040A040E7
:10174000E1F700C000002FEF31EE44E021503040BF
:101750004040E1F700C000008FEF91EEA4E081501F
:101760009040A040E1F700C000002FEF31EE44E0D0
:10177000215030404040E1F700C000008FEF91EE73
:10178000A4E081509040A040E1F700C000002FEF9E
:1017900031EE44E0215030404040E1F700C000000D
:1017A0008FEF91EEA4E081509040A040E1F700C09F
:1017B0000000579880912701909128019093D802BA
:1017C0008093D70283E08093D4021092D1021092CA
:1017D000D002579A88B399B380642FEF31EE44E07A
:1017E000215030404040E1F700C000002FEF31EEC3
:1017F00044E0215030404040E1F700C000002FEFAE
:1018000031EE44E0215030404040E1F700C000009C
:101810002FEF31EE44E0215030404040E1F700C06E
:1018200000002FEF31EE44E0215030404040E1F71E
:1018300000C000002FEF31EE44E021503040404026
:10184000E1F700C000002FEF31EE44E021503040BE
:101850004040E1F700C000002FEF31EE44E021509E
:1018600030404040E1F700C000002FEF31EE44E08F
:10187000215030404040E1F700C000002FEF31EE32
:1018800044E0215030404040E1F700C000002FEF1D
:1018900031EE44E0215030404040E1F700C000000C
:1018A0002FEF31EE44E0215030404040E1F700C0DE
:1018B00000002FEF31EE44E0215030404040E1F78E
:1018C00000C000002FEF31EE44E021503040404096
:1018D000E1F700C000002FEF31EE44E0215030402E
:1018E0004040E1F700C000002FEF31EE44E021500E
:1018F00030404040E1F700C000002FEF31EE44E0FF
:10190000215030404040E1F700C000002FEF31EEA1
:1019100044E0215030404040E1F700C000002FEF8C
:1019200031EE44E0215030404040E1F700C000007B
:101930002FEF31EE44E0215030404040E1F700C04D
:1019400000002FEF31EE44E0215030404040E1F7FD
:1019500000C000002FEF31EE44E021503040404005
:10196000E1F700C000002FEF31EE44E0215030409D
:101970004040E1F700C000002FEF31EE44E021507D
:1019800030404040E1F700C000002FEF31EE44E06E
:10199000215030404040E1F700C000002FEF31EE11
:1019A00044E0215030404040E1F700C000002FEFFC
:1019B00031EE44E0215030404040E1F700C00000EB
:1019C0002FEF31EE44E0215030404040E1F700C0BD
:1019D00000002FEF31EE44E0215030404040E1F76D
:1019E00000C000002FEF31EE44E021503040404075
:1019F000E1F700C000008F7B99BB88BB1092CF023B
:101A00001092CE0280919E0190919F01009779F5EE
:101A10008091CE029091CF028332910540F58E01E4
:101A20000F5F1F4F07C08091CE029091CF0283328B
:101A30009105E8F48091CE029091CF02B8014AE07E
:101A400050E00E94851B8EE061E0A8010E94131BFC
:101A50008FEF91EEA4E081509040A040E1F700C0EC
:101A6000000080919E0190919F010097E1F280918A
:101A70009E0190919F01181619060CF0D4C2109285
:101A80009F0110929E015798809125019091260107
:101A90009093D8028093D70282E08093D402109270
:101AA000D1021092D0022FEF31EE44E021503040AD
:101AB0004040E1F700C000008FEF91EEA4E08150BC
:101AC0009040A040E1F700C000002FEF31EE44E06D
:101AD000215030404040E1F700C000008FEF91EE10
:101AE000A4E081509040A040E1F700C000002FEF3B
:101AF00031EE44E0215030404040E1F700C00000AA
:101B00008FEF91EEA4E081509040A040E1F700C03B
:101B100000002FEF31EE44E0215030404040E1F72B
:101B200000C000008FEF91EEA4E081509040A040F3
:101B3000E1F700C000002FEF31EE44E021503040CB
:101B40004040E1F700C000008FEF91EEA4E081502B
:101B50009040A040E1F700C0000080E061E04DE669
:101B600050E00E94131B2FEF31EE44E02150304033
:101B70004040E1F700C000008FEF91EEA4E08150FB
:101B80009040A040E1F700C000002FEF31EE44E0AC
:101B9000215030404040E1F700C000008FEF91EE4F
:101BA000A4E081509040A040E1F700C000002FEF7A
:101BB00031EE44E0215030404040E1F700C00000E9
:101BC0008FEF91EEA4E081509040A040E1F700C07B
:101BD00000002FEF31EE44E0215030404040E1F76B
:101BE00000C000008FEF91EEA4E081509040A04033
:101BF000E1F700C000002FEF31EE44E0215030400B
:101C00004040E1F700C000008FEF91EEA4E081506A
:101C10009040A040E1F700C00000EEE3F1E08E014B
:101C20000F5F1F4F2081222371F031965D9907C00D
:101C300089EE9DEF02C00197A9F35D9BFCCF2CB903
:101C40002081222391F7579A1092CF021092CE0250
:101C500080919E0190919F010097F1F024C08091A6
:101C6000CE029091CF02B8014AE050E00E94851B5D
:101C70008EE061E0A8010E94131B2FEF31EE44E0DB
:101C8000215030404040E1F700C0000080919E01AB
:101C900090919F01009739F48091CE029091CF02EC
:101CA00087309105E0F280919E0190919F01181676
:101CB00019060CF074C110929F0110929E01579862
:101CC00080912301909124019093D8028093D702B0
:101CD00081E08093D4021092D1021092D002E8E306
:101CE000F1E02191222369F05D9907C089EE9DEF13
:101CF00002C00197B1F35D9BFCCF2CB92191222347
:101D000099F7579A1092CF021092CE0280919E01BD
:101D100090919F01009779F58091CE029091CF022A
:101D20008530910540F58E010F5F1F4F07C08091F0
:101D3000CE029091CF0285309105E8F48091CE02D9
:101D40009091CF02B8014AE050E00E94851B8EE0DE
:101D500061E0A8010E94131B8FEF91EEA4E0815077
:101D60009040A040E1F700C0000080919E0190915A
:101D70009F010097E1F280919E0190919F011816BA
:101D800019060CF02FC110929F0110929E01E8E4F9
:101D9000F1E02191222369F05D9907C089EE9DEF62
:101DA00002C00197B1F35D9BFCCF2CB92191222396
:101DB00099F7579A1092CF021092CE0280919E010D
:101DC00090919F01009779F58091CE029091CF027A
:101DD0008530910540F58E010F5F1F4F07C0809140
:101DE000CE029091CF0285309105E8F48091CE0229
:101DF0009091CF02B8014AE050E00E94851B8EE02E
:101E000061E0A8010E94131B2FEF31EE44E0215046
:101E100030404040E1F700C0000080919E01909169
:101E20009F010097E1F280919E0190919F01181609
:101E300019060CF0D7C010929F0110929E01E6E6A1
:101E4000F1E02191222369F05D9907C089EE9DEFB1
:101E500002C00197B1F35D9BFCCF2CB921912223E5
:101E600099F7579A1092CF021092CE0280919E015C
:101E700090919F01009779F58091CE029091CF02C9
:101E80008830910540F58E010F5F1F4F07C080918C
:101E9000CE029091CF0288309105E8F48091CE0275
:101EA0009091CF02B8014AE050E00E94851B8EE07D
:101EB00061E0A8010E94131B8FEF91EEA4E0815016
:101EC0009040A040E1F700C0000080919E019091F9
:101ED0009F010097E1F280919E0190919F01181659
:101EE00019060CF07FC010929F0110929E01E3E54D
:101EF000F1E02191222369F05D9907C089EE9DEF01
:101F000002C00197B1F35D9BFCCF2CB92191222334
:101F100099F7579A1092CF021092CE0280919E01AB
:101F200090919F01009779F58091CE029091CF0218
:101F30008830910540F58E010F5F1F4F07C08091DB
:101F4000CE029091CF0288309105E8F48091CE02C4
:101F50009091CF02B8014AE050E00E94851B8EE0CC
:101F600061E0A8010E94131B2FEF31EE44E02150E5
:101F700030404040E1F700C0000080919E01909108
:101F80009F010097E1F280919E0190919F011816A8
:101F9000190644F510929F0110929E015BCA579852
:101FA0001092D3021092D2028091D2029091D30269
:101FB0009093D1028093D00210929F0110929E01C3
:101FC00080919E0190919F019093A1018093A00127
:101FD000E091D202F091D302EE55FE4F1082EEE373
:101FE000F1E020CE57981092D3021092D202809145
:101FF000D2029091D3029093D1028093D00210929A
:102000009F0110929E0180919E0190919F0190935B
:10201000A1018093A001E091D202F091D302EE558C
:10202000FE4F108217CA57981092D3021092D20214
:102030008091D2029091D3029093D1028093D002EA
:1020400010929F0110929E0180919E0190919F019C
:102050009093A1018093A001E091D202F091D3026C
:10206000EE55FE4F108280E061E04DE750E00E94A7
:10207000131B2FEF31EE44E0215030404040E1F798
:1020800000C000008FEF91EEA4E081509040A0408E
:10209000E1F700C000002FEF31EE44E02150304066
:1020A0004040E1F700C000008FEF91EEA4E08150C6
:1020B0009040A040E1F700C000002FEF31EE44E077
:1020C000215030404040E1F700C000008FEF91EE1A
:1020D000A4E081509040A040E1F700C000002FEF45
:1020E00031EE44E0215030404040E1F700C00000B4
:1020F0008FEF91EEA4E081509040A040E1F700C046
:1021000000002FEF31EE44E0215030404040E1F735
:1021100000C000008FEF91EEA4E081509040A040FD
:10212000E1F700C000002FEF31EE44E021503040D5
:102130004040E1F700C000008FEF91EEA4E0815035
:102140009040A040E1F700C000002FEF31EE44E0E6
:10215000215030404040E1F700C000008FEF91EE89
:10216000A4E081509040A040E1F700C000002FEFB4
:1021700031EE44E0215030404040E1F700C0000023
:102180008FEF91EEA4E081509040A040E1F700C0B5
:1021900000002FEF31EE44E0215030404040E1F7A5
:1021A00000C000008FEF91EEA4E081509040A0406D
:1021B000E1F700C000002FEF31EE44E02150304045
:1021C0004040E1F700C000008FEF91EEA4E08150A5
:1021D0009040A040E1F700C000002FEF31EE44E056
:1021E000215030404040E1F700C000008FEF91EEF9
:1021F000A4E081509040A040E1F700C000002FEF24
:1022000031EE44E0215030404040E1F700C0000092
:102210008FEF91EEA4E081509040A040E1F700C024
:1022200000002FEF31EE44E0215030404040E1F714
:1022300000C000008FEF91EEA4E081509040A040DC
:10224000E1F700C000002FEF31EE44E021503040B4
:102250004040E1F700C000008FEF91EEA4E0815014
:102260009040A040E1F700C000002FEF31EE44E0C5
:10227000215030404040E1F700C000008FEF91EE68
:10228000A4E081509040A040E1F700C000002FEF93
:1022900031EE44E0215030404040E1F700C0000002
:1022A0008FEF91EEA4E081509040A040E1F700C094
:1022B00000002FEF31EE44E0215030404040E1F784
:1022C00000C000008FEF91EEA4E081509040A0404C
:1022D000E1F700C000002FEF31EE44E02150304024
:1022E0004040E1F700C000008FEF91EEA4E0815084
:1022F0009040A040E1F700C000002FEF31EE44E035
:10230000215030404040E1F700C000008FEF91EED7
:10231000A4E081509040A040E1F700C000002FEF02
:1023200031EE44E0215030404040E1F700C0000071
:102330008FEF91EEA4E081509040A040E1F700C003
:1023400000002FEF31EE44E0215030404040E1F7F3
:1023500000C000008FEF91EEA4E081509040A040BB
:10236000E1F700C000002FEF31EE44E02150304093
:102370004040E1F700C000008FEF91EEA4E08150F3
:102380009040A040E1F700C000002FEF31EE44E0A4
:10239000215030404040E1F700C000008FEF91EE47
:1023A000A4E081509040A040E1F700C000002FEF72
:1023B00031EE44E0215030404040E1F700C00000E1
:1023C0008FEF91EEA4E081509040A040E1F700C073
:1023D00000002FEF31EE44E0215030404040E1F763
:1023E00000C000008FEF91EEA4E081509040A0402B
:1023F000E1F700C000002EC8882309F45FC090E018
:102400002FEF31EE44E0215030404040E1F700C072
:1024100000002FEF31EE44E0215030404040E1F722
:1024200000C000002FEF31EE44E02150304040402A
:10243000E1F700C000002FEF31EE44E021503040C2
:102440004040E1F700C000002FEF31EE44E02150A2
:1024500030404040E1F700C000002FEF31EE44E093
:10246000215030404040E1F700C000002FEF31EE36
:1024700044E0215030404040E1F700C000002FEF21
:1024800031EE44E0215030404040E1F700C0000010
:102490002FEF31EE44E0215030404040E1F700C0E2
:1024A00000002FEF31EE44E0215030404040E1F792
:1024B00000C000009F5F981708F4A2CF08950F9303
:1024C0001F93DF93CF9300D00F92CDB7DEB757980D
:1024D0001092D3021092D2028091D2029091D30234
:1024E0009093D1028093D00210929F0110929E018E
:1024F00080919E0190919F019093A1018093A001F2
:10250000E091D202F091D302EE55FE4F108257981F
:1025100080912301909124019093D8028093D70257
:1025200081E08093D4021092D1021092D002E3E9AC
:10253000F1E02191222369F05D9907C089EE9DEFBA
:1025400002C00197B1F35D9BFCCF2CB921912223EE
:1025500099F7579A1092CF021092CE0280919E0165
:1025600090919F01009779F58091CE029091CF02D2
:102570008A30910540F58E010F5F1F4F07C0809193
:10258000CE029091CF028A309105E8F48091CE027C
:102590009091CF02B8014AE050E00E94851B8EE086
:1025A00061E0A8010E94131B8FEF91EEA4E081501F
:1025B0009040A040E1F700C0000080919E01909102
:1025C0009F010097E1F280919E0190919F01181662
:1025D00019064CF510929F0110929E018091D20233
:1025E0009091D302019797FD0FC0FC01EE55FE4F6D
:1025F00020812D3031F02A3021F02F3411F02B348E
:10260000A9F5019797FFF1CF8D559E4FDC011C92E4
:1026100020E030E0C9010F900F900F90CF91DF9133
:102620001F910F91089557981092D3021092D202E1
:102630008091D2029091D3029093D1028093D002E4
:1026400010929F0110929E0180919E0190919F0196
:102650009093A1018093A001E091D202F091D30266
:10266000EE55FE4F108220E030E0D4CFFC01ED5556
:10267000FE4F108218161906B4F42091A7012A30D3
:10268000A9F040E050E00AC09A0128553E4FFA01F7
:10269000EE55FE4F65816A3009F4BCCF4F5F5F4F46
:1026A000481759078CF320E030E0B4CF28EA31E036
:1026B000B1CF8091D2029091D302019797FD2CC0A7
:1026C000FC01EE55FE4F20812D30B9F32A30A9F3DD
:1026D0002F3499F32B3489F3FC01ED55FE4F108212
:1026E00018161906ACF42091A7012A30E9F040E051
:1026F00050E009C09A0128553E4FFA01EE55FE4FB1
:1027000065816A3079F04F5F5F4F4817590794F33E
:1027100020E030E0C90108958D559E4FFC011082E4
:1027200020E030E0C901089528EA31E0FBCF209194
:10273000D2023091D3022150304037FD0CC0F90154
:10274000EE55FE4F80818D30B1F38A30A1F38F3486
:1027500091F38B3481F3F901ED55FE4F1082C901DD
:10276000089582EA91E008950F931F93DF93CF932A
:1027700000D00F92CDB7DEB757981092D3021092C7
:10278000D2028091D2029091D3029093D102809391
:10279000D00210929F0110929E0180919E01909113
:1027A0009F019093A1018093A001E091D202F0914A
:1027B000D302EE55FE4F10825798809123019091DD
:1027C00024019093D8028093D70281E08093D402B1
:1027D0001092D1021092D002E8E8F1E02191222378
:1027E00069F05D9907C089EE9DEF02C00197B1F3D2
:1027F0005D9BFCCF2CB92191222399F7579A109217
:10280000CF021092CE0280919E0190919F0100977D
:1028100079F58091CE029091CF028530910540F5F7
:102820008E010F5F1F4F07C08091CE029091CF02A3
:1028300085309105E8F48091CE029091CF02B801E5
:102840004AE050E00E94851B8EE061E0A8010E94F2
:10285000131B8FEF91EEA4E081509040A040E1F770
:1028600000C0000080919E0190919F010097E1F2CD
:1028700080919E0190919F01181619067CF4109288
:102880009F0110929E0121E030E0C9010F900F904E
:102890000F90CF91DF911F910F910895579810924B
:1028A000D3021092D2028091D2029091D3029093DF
:1028B000D1028093D00210929F0110929E018091CC
:1028C0009E0190919F019093A1018093A001E091BE
:1028D000D202F091D302EE55FE4F108220E030E09C
:1028E000D4CF1F920F920FB60F9211242F933F93C4
:1028F0008F939F93EF93FF935F9BFECF2CB18091BB
:10290000D2029091D302FC01EE55FE4F2083019636
:102910009093D3028093D2028091D2029091D302FD
:1029200031E08B32930724F01092D3021092D2023E
:102930008091D7029091D802E091D002F091D1021B
:10294000E80FF91F3081321779F01092D1021092FE
:10295000D002FF91EF919F918F913F912F910F9016
:102960000FBE0F901F9018952091D0023091D10288
:102970002F5F3F4F3093D1022093D002E091D002DD
:10298000F091D102E80FF91F8081882311F710928E
:10299000D1021092D0028091D402843041F081E0C3
:1029A00090E090939F0180939E015798D2CF8091A1
:1029B0002101909122019093D8028093D702109226
:1029C000D402C7CF1F920F920FB60F9211248F938C
:1029D0009F938091CE029091CF0201969093CF0267
:1029E0008093CE0288B7806188BF9F918F910F90AE
:1029F0000FBE0F901F9018958EB58D608EBD8DE324
:102A00008BBD89E08ABD1DBC1CBC89B7806189BFB4
:102A10008FEC90E061E070E00E94490088E390E074
:102A200066E070E00E94A7000E94820084E00E949D
:102A30004D070E94A50080919E0190919F018130D9
:102A40009105C9F70E94B41384E00E944D070E94CB
:102A500082000E94A500EFCF982F907F95BBA89A87
:102A6000AA9AE9EFF0E03197F1F700C00000AA98C8
:102A7000A898E9EFF0E03197F1F700C0000090E08E
:102A800082959295907F9827807F982785BBA89AFA
:102A9000AA9A89EF90E00197F1F700C00000AA9888
:102AA000A898E9EFF0E03197F1F700C00000089531
:102AB000982F907F95BBAA9AE9EFF0E03197F1F754
:102AC00000C00000AA98E9EFF0E03197F1F700C0EC
:102AD000000090E082959295907F9827807F9827BC
:102AE00085BBAA9A89EF90E00197F1F700C000003A
:102AF000AA98E9EFF0E03197F1F700C000000895DF
:102B000085EA9EE00197F1F700C0000015BA15BAFA
:102B100084B3806F84BB84B3876084BB80E385BB50
:102B2000AA9AE9EFF0E03197F1F700C00000AA9807
:102B3000E9EFF0E03197F1F700C0000085BBAA9AF9
:102B400089EF90E00197F1F700C00000AA98E9EF43
:102B5000F0E03197F1F700C0000080E285BBAA9A4F
:102B6000E9EFF0E03197F1F700C00000AA98E9EF33
:102B7000F0E03197F1F700C0000085BBAA9A89EF19
:102B800090E00197F1F700C00000AA98E9EFF0E0AB
:102B90003197F1F700C0000080E885BBAA9A89EF61
:102BA00090E00197F1F700C00000AA98E9EFF0E08B
:102BB0003197F1F700C0000015BAAA9A89EF90E0AA
:102BC0000197F1F700C00000AA98E9EFF0E0319713
:102BD000F1F700C0000080EE85BBAA9A89EF90E073
:102BE0000197F1F700C00000AA98E9EFF0E03197F3
:102BF000F1F700C00000089515BAAA9A89EF90E095
:102C00000197F1F700C00000AA9889EF90E00197C2
:102C1000F1F700C0000080E185BBAA9A89EF90E03F
:102C20000197F1F700C00000AA9889EF90E00197A2
:102C3000F1F700C00000089515BAAA9A89EF90E054
:102C40000197F1F700C00000AA9889EF90E0019782
:102C5000F1F700C0000080E285BBAA9A89EF90E0FE
:102C60000197F1F700C00000AA9889EF90E0019762
:102C7000F1F700C0000008950097B9F1FC01208130
:102C8000222399F140E04F5F322F307F35BBA89A65
:102C9000AA9AE9EFF0E03197F1F700C00000AA9896
:102CA000A898E9EFF0E03197F1F700C0000030E0BC
:102CB00022953295307F3227207F322725BBA89A74
:102CC000AA9AE9EFF0E03197F1F700C00000AA9866
:102CD000A898E9EFF0E03197F1F700C00000FC019F
:102CE000E40FF11D2081222371F60895623089F1ED
:102CF000633069F1613049F18068982F907F95BB0E
:102D0000AA9AE9EFF0E03197F1F700C00000AA9825
:102D1000E9EFF0E03197F1F700C0000090E0829514
:102D20009295907F9827807F982785BBAA9A89EFF4
:102D300090E00197F1F700C00000AA98E9EFF0E0F9
:102D40003197F1F700C000000895805CD5CF8C5A10
:102D5000D3CF8C5ED1CF423009F46EC0433009F43A
:102D600069C0413009F464C06068262F207F25BB0C
:102D7000AA9AE9EFF0E03197F1F700C00000AA98B5
:102D8000E9EFF0E03197F1F700C0000070E06295E4
:102D90007295707F7627607F762765BBAA9AE9EFE8
:102DA000F0E03197F1F700C00000AA98E9EFF0E0F9
:102DB0003197F1F700C000009C01FC0144914423CD
:102DC000B1F140E0F9012491322F307F35BBA89A50
:102DD000AA9AE9EFF0E03197F1F700C00000AA9855
:102DE000A898E9EFF0E03197F1F700C0000030E07B
:102DF00022953295307F3227207F322725BBA89A33
:102E0000AA9AE9EFF0E03197F1F700C00000AA9824
:102E1000A898E9EFF0E03197F1F700C000004F5FAC
:102E20009C01240F311DF9015491552359F6089541
:102E3000605C9ACF6C5A98CF6C5E96CF660F660F27
:102E4000660F6064FC012491462F4F5F362F307F60
:102E500035BBAA9AE9EFF0E03197F1F700C0000026
:102E6000AA98E9EFF0E03197F1F700C0000070E0B8
:102E700062957295707F7627607F762765BBAA9AE8
:102E8000E9EFF0E03197F1F700C00000AA98E9EF10
:102E9000F0E03197F1F700C00000322F307F35BBF2
:102EA000A89AAA9AE9EFF0E03197F1F700C0000084
:102EB000AA98A898E9EFF0E03197F1F700C0000078
:102EC00030E022953295307F3227207F322725BB94
:102ED000A89AAA9AE9EFF0E03197F1F700C0000054
:102EE000AA98A898E9EFF0E03197F1F700C0000048
:102EF000FC0131962491642F6F5F342F307F35BBF6
:102F0000AA9AE9EFF0E03197F1F700C00000AA9823
:102F1000E9EFF0E03197F1F700C0000050E0429592
:102F20005295507F5427407F542745BBAA9AE9EF1A
:102F3000F0E03197F1F700C00000AA98E9EFF0E067
:102F40003197F1F700C00000322F307F35BBA89ACF
:102F5000AA9AE9EFF0E03197F1F700C00000AA98D3
:102F6000A898E9EFF0E03197F1F700C0000030E0F9
:102F700022953295307F3227207F322725BBA89AB1
:102F8000AA9AE9EFF0E03197F1F700C00000AA98A3
:102F9000A898E9EFF0E03197F1F700C00000FC01DC
:102FA00032962491462F4F5F362F307F35BBAA9A39
:102FB000E9EFF0E03197F1F700C00000AA98E9EFDF
:102FC000F0E03197F1F700C0000070E06295729573
:102FD000707F7627607F762765BBAA9AE9EFF0E0DD
:102FE0003197F1F700C00000AA98E9EFF0E03197BF
:102FF000F1F700C00000322F307F35BBA89AAA9AA3
:10300000E9EFF0E03197F1F700C00000AA98A89826
:10301000E9EFF0E03197F1F700C0000030E02295D1
:103020003295307F3227207F322725BBA89AAA9A73
:10303000E9EFF0E03197F1F700C00000AA98A898F6
:10304000E9EFF0E03197F1F700C00000FC013396A2
:103050002491642F6F5F342F307F35BBAA9AE9EF3C
:10306000F0E03197F1F700C00000AA98E9EFF0E036
:103070003197F1F700C0000050E042955295507F23
:103080005427407F542745BBAA9AE9EFF0E03197D7
:10309000F1F700C00000AA98E9EFF0E03197F1F7EE
:1030A00000C00000322F307F35BBA89AAA9AE9EF02
:1030B000F0E03197F1F700C00000AA98A898E9EF76
:1030C000F0E03197F1F700C0000030E02295329532
:1030D000307F3227207F322725BBA89AAA9AE9EFB2
:1030E000F0E03197F1F700C00000AA98A898E9EF46
:1030F000F0E03197F1F700C00000FC013496249114
:10310000462F4F5F362F307F35BBAA9AE9EFF0E0AC
:103110003197F1F700C00000AA98E9EFF0E031978D
:10312000F1F700C0000070E062957295707F76271D
:10313000607F762765BBAA9AE9EFF0E03197F1F757
:1031400000C00000AA98E9EFF0E03197F1F700C065
:103150000000322F307F35BBA89AAA9AE9EFF0E041
:103160003197F1F700C00000AA98A898E9EFF0E0C5
:103170003197F1F700C0000030E022953295307FA2
:103180003227207F322725BBA89AAA9AE9EFF0E0E0
:103190003197F1F700C00000AA98A898E9EFF0E095
:1031A0003197F1F700C00000FC0135962491642F9F
:1031B0006F5F342F307F35BBAA9AE9EFF0E031978B
:1031C000F1F700C00000AA98E9EFF0E03197F1F7BD
:1031D00000C0000050E042955295507F5427407F38
:1031E000542745BBAA9AE9EFF0E03197F1F700C008
:1031F0000000AA98E9EFF0E03197F1F700C0000075
:10320000322F307F35BBA89AAA9AE9EFF0E03197C8
:10321000F1F700C00000AA98A898E9EFF0E0319714
:10322000F1F700C0000030E022953295307F322760
:10323000207F322725BBA89AAA9AE9EFF0E03197C0
:10324000F1F700C00000AA98A898E9EFF0E03197E4
:10325000F1F700C00000FC0136964491262F2F5F45
:10326000362F307F35BBAA9AE9EFF0E03197F1F7BE
:1032700000C00000AA98E9EFF0E03197F1F700C034
:10328000000070E062957295707F7627607F7627E8
:1032900065BBAA9AE9EFF0E03197F1F700C00000B2
:1032A000AA98E9EFF0E03197F1F700C00000342F61
:1032B000307F35BBA89AAA9AE9EFF0E03197F1F791
:1032C00000C00000AA98A898E9EFF0E03197F1F764
:1032D00000C0000050E042955295507F5427407F37
:1032E000542745BBA89AAA9AE9EFF0E03197F1F785
:1032F00000C00000AA98A898E9EFF0E03197F1F734
:1033000000C000000796FC018491922F907F95BB2E
:10331000AA9AE9EFF0E03197F1F700C00000AA980F
:10332000E9EFF0E03197F1F700C0000030E02295BE
:103330003295307F3227207F322725BBAA9AE9EFCA
:10334000F0E03197F1F700C00000AA98E9EFF0E053
:103350003197F1F700C00000982F907F95BBA89A95
:10336000AA9AE9EFF0E03197F1F700C00000AA98BF
:10337000A898E9EFF0E03197F1F700C0000090E085
:1033800082959295907F9827807F982785BBA89AF1
:10339000AA9A89EF90E00197F1F700C00000AA987F
:1033A000A898E9EFF0E03197F1F700C00000089528
:1033B000882321F190E030E120EE35BBAA9AE9EFB5
:1033C000F0E03197F1F700C00000AA98E9EFF0E0D3
:1033D0003197F1F700C0000025BBAA9AE9EFF0E0B1
:1033E0003197F1F700C00000AA98E9EFF0E03197BB
:1033F000F1F700C000009F5F9817F8F20895882346
:1034000021F190E030E120E835BBAA9AE9EFF0E045
:103410003197F1F700C00000AA98E9EFF0E031978A
:10342000F1F700C0000025BBAA9AE9EFF0E0319760
:10343000F1F700C00000AA98E9EFF0E03197F1F74A
:1034400000C000009F5F9817F8F2089515BAAA9A75
:1034500089EF90E00197F1F700C00000AA9889EF8A
:1034600090E00197F1F700C0000080EE85BBAA9ABA
:1034700089EF90E00197F1F700C00000AA9889EF6A
:1034800090E00197F1F700C00000089515BAAA9ADC
:1034900089EF90E00197F1F700C00000AA9889EF4A
:1034A00090E00197F1F700C0000080EF85BBAA9A79
:1034B00089EF90E00197F1F700C00000AA9889EF2A
:1034C00090E00197F1F700C00000089515BAAA9A9C
:1034D00089EF90E00197F1F700C00000AA9889EF0A
:1034E00090E00197F1F700C0000080EC85BBAA9A3C
:1034F00089EF90E00197F1F700C00000AA9889EFEA
:1035000090E00197F1F700C00000089515BAAA9A5B
:1035100089EF90E00197F1F700C00000AA9889EFC9
:1035200090E00197F1F700C0000080E885BBAA9AFF
:1035300089EF90E00197F1F700C00000AA9889EFA9
:1035400090E00197F1F700C00000089515BAAA9A1B
:1035500089EF90E00197F1F700C00000AA9889EF89
:1035600090E00197F1F700C0000080EC85BBAA9ABB
:1035700089EF90E00197F1F700C00000AA9889EF69
:1035800090E00197F1F700C000000895882319F139
:1035900090E020E125BBAA9AE9EFF0E03197F1F73E
:1035A00000C00000AA98E9EFF0E03197F1F700C001
:1035B000000015BAAA9AE9EFF0E03197F1F700C0E0
:1035C0000000AA98E9EFF0E03197F1F700C00000A1
:1035D0009F5F9817F8F20895882321F190E030E179
:1035E00020E435BBAA9AE9EFF0E03197F1F700C08B
:1035F0000000AA98E9EFF0E03197F1F700C0000071
:1036000025BBAA9AE9EFF0E03197F1F700C000007E
:10361000AA98E9EFF0E03197F1F700C000009F5F52
:103620009817F8F20895623009F46DC0633009F418
:1036300068C0613009F463C08068982F907F95BBA3
:10364000AA9AE9EFF0E03197F1F700C00000AA98DC
:10365000E9EFF0E03197F1F700C0000090E08295CB
:103660009295907F9827807F982785BBAA9A89EFAB
:1036700090E00197F1F700C00000AA98E9EFF0E0B0
:103680003197F1F700C0000041155105B9F1FA0179
:103690008081882399F120E02F5F982F907F95BB40
:1036A000A89AAA9AE9EFF0E03197F1F700C000007C
:1036B000AA98A898E9EFF0E03197F1F700C0000070
:1036C00090E082959295907F9827807F982785BB80
:1036D000A89AAA9A89EF90E00197F1F700C000003C
:1036E000AA98A898E9EFF0E03197F1F700C0000040
:1036F000FA01E20FF11D8081882371F60895805C44
:103700009BCF8C5A99CF8C5E97CFFB019F01E89499
:103710004230C4F04532B4F44A3029F497FB1EF429
:10372000909581959F4F642F77270E94B61B805DEF
:103730008A330CF0895D8193CB010097A1F716F4D1
:103740005DE251931082C9010C94A61BDC01FC01BF
:10375000672F71917723E1F7329704C07C916D93C5
:1037600070836291AE17BF07C8F30895AA1BBB1BF5
:1037700051E107C0AA1FBB1FA617B70710F0A61B71
:10378000B70B881F991F5A95A9F780959095BC0192
:08379000CD010895F894FFCF6C
:10379800496E69742073746172742E2E00436865D3
:1037A800636B204E6574776F726B2E2E00496E69BD
:1037B800742050726F626C656D00220D00415420B8
:1037C8004F4B00496E6974696174696E672073684C
:1037D8007574646F776E2E2E000D0A004F4B0D0A1C
:1037E800002B435245473A20302C310D0A004361E3
:1037F8006C6C2052656164790D0A0052494E470D80
:103808000A002B434D54493A003E20004E4F524D7A
:10381800414C20504F57455220444F574E0D0A00F7
:10382800496E76616C6964004C69676874206F6ED4
:10383800004C69676874206F66660053746174751C
:1038480073002B383830313931313139333930312F
:1038580000A900AC00B100BE00D200D900DC0041D4
:10386800540D004154480D00415445300D00415459
:103878002B435245473F0D0041542B434D47463D8E
:10388800310D0041542B434E4D493D322C312C30E3
:103898002C302C300D0041542B43504D533D2253B6
:1038A8004D222C22534D222C22534D220D004154DF
:1038B8002B434D47533D220041542B434D47443D34
:0E38C800310D0041542B434D47523D310D0050
:00000001FF
