:100000000C942A000C9447000C9447000C94470071
:100010000C9447000C9447000C9411080C94470072
:100020000C9447000C9447000C9447000C94A007D4
:100030000C9447000C9447000C9447000C94470024
:100040000C9447000C9447000C9447000C94470014
:100050000C94470011241FBECFE5D4E0DEBFCDBF16
:1000600011E0A0E6B0E0EEE4FEE102C005900D92E2
:10007000A638B107D9F712E0A6E8B1E001C01D9299
:10008000AF3BB107E1F70E942B080C94250F0C94AD
:10009000000090BD89B96115710571F1599A8AB155
:1000A00088618AB980B5866880BD1092B7021092C7
:1000B000B60257981092BB021092BA028091BA020F
:1000C0009091BB029093B9028093B802109287017D
:1000D0001092860180918601909187019093890109
:1000E00080938801E091BA02F091BB02E657FE4F7F
:1000F0001082579A789408955998D1CF57981092B2
:10010000BB021092BA028091BA029091BB02909306
:10011000B9028093B80210928701109286018091F3
:100120008601909187019093890180938801E091E5
:10013000BA02F091BB02E657FE4F1082089557981D
:100140000895579A08950F931F93DF93CF9300D08C
:100150000F92CDB7DEB78FEF91EEA4E081509040C3
:10016000A040E1F700C000000E9457098FEF91EE18
:10017000A4E081509040A040E1F700C000005798F3
:100180008091EF009091F0009093BE028093BD02A9
:1001900082E08093BC021092B9021092B80280E013
:1001A00060E040E650E00E946E0E8FEF91EEA4E01A
:1001B00081509040A040E1F700C000008FEF91EE29
:1001C000A4E081509040A040E1F700C000008FEF14
:1001D00091EEA4E081509040A040E1F700C0000003
:1001E0008FEF91EEA4E081509040A040E1F700C075
:1001F00000008FEF91EEA4E081509040A040E1F725
:1002000000C000008FEF91EEA4E081509040A0402C
:10021000E1F700C000008FEF91EEA4E08150904024
:10022000A040E1F700C000008FEF91EEA4E0815004
:100230009040A040E1F700C000008FEF91EEA4E0F5
:1002400081509040A040E1F700C000008FEF91EE98
:10025000A4E081509040A040E1F700C00000E8E039
:10026000F1E08E010F5F1F4F2081222371F0319644
:100270005D9907C089EE9DEF02C00197A9F35D9BD0
:10028000FCCF2CB92081222391F7579A1092B70204
:100290001092B60280918601909187010097F1F04B
:1002A00024C08091B6029091B702B8014AE050E0B4
:1002B0000E94E00E8EE061E0A8010E946E0E8FEFBA
:1002C00091EEA4E081509040A040E1F700C0000012
:1002D0008091860190918701009739F48091B60250
:1002E0009091B70287309105E0F28091860190915C
:1002F0008701181619060CF076C11092870110922A
:10030000860157988091ED009091EE009093BE0287
:100310008093BD0281E08093BC021092B9021092DA
:10032000B802E2E0F1E02191222369F05D9907C073
:1003300089EE9DEF02C00197B1F35D9BFCCF2CB914
:100340002191222399F7579A1092B7021092B60280
:100350008091860190918701009779F58091B6028E
:100360009091B7028530910540F58E010F5F1F4FC8
:1003700007C08091B6029091B70285309105E8F4EC
:100380008091B6029091B702B8014AE050E00E9415
:10039000E00E8EE061E0A8010E946E0E8FEF91EEFC
:1003A000A4E081509040A040E1F700C0000080919F
:1003B0008601909187010097E1F2809186019091EA
:1003C0008701181619060CF031C11092870110929E
:1003D0008601E2E1F1E02191222369F05D9907C0F5
:1003E00089EE9DEF02C00197B1F35D9BFCCF2CB964
:1003F0002191222399F7579A1092B7021092B602D0
:100400008091860190918701009779F58091B602DD
:100410009091B7028530910540F58E010F5F1F4F17
:1004200007C08091B6029091B70285309105E8F43B
:100430008091B6029091B702B8014AE050E00E9464
:10044000E00E8EE061E0A8010E946E0E8FEF91EE4B
:10045000A4E081509040A040E1F700C000008091EE
:100460008601909187010097E1F280918601909139
:100470008701181619060CF0D9C010928701109246
:100480008601E0E3F1E02191222369F05D9907C044
:1004900089EE9DEF02C00197B1F35D9BFCCF2CB9B3
:1004A0002191222399F7579A1092B7021092B6021F
:1004B0008091860190918701009779F58091B6022D
:1004C0009091B7028830910540F58E010F5F1F4F64
:1004D00007C08091B6029091B70288309105E8F488
:1004E0008091B6029091B702B8014AE050E00E94B4
:1004F000E00E8EE061E0A8010E946E0E8FEF91EE9B
:10050000A4E081509040A040E1F700C0000080913D
:100510008601909187010097E1F280918601909188
:100520008701181619060CF081C0109287011092ED
:100530008601EDE1F1E02191222369F05D9907C088
:1005400089EE9DEF02C00197B1F35D9BFCCF2CB902
:100550002191222399F7579A1092B7021092B6026E
:100560008091860190918701009779F58091B6027C
:100570009091B7028830910540F58E010F5F1F4FB3
:1005800007C08091B6029091B70288309105E8F4D7
:100590008091B6029091B702B8014AE050E00E9403
:1005A000E00E8EE061E0A8010E946E0E8FEF91EEEA
:1005B000A4E081509040A040E1F700C0000080918D
:1005C0008601909187010097E1F2809186019091D8
:1005D00087011816190654F51092870110928601AA
:1005E00081E090E043C057981092BB021092BA028B
:1005F0008091BA029091BB029093B9028093B802A5
:100600001092870110928601809186019091870156
:100610009093890180938801E091BA02F091BB0226
:10062000E657FE4F1082E8E0F1E01ECE5798109298
:10063000BB021092BA028091BA029091BB029093D1
:10064000B9028093B80210928701109286018091BE
:100650008601909187019093890180938801E091B0
:10066000BA02F091BB02E657FE4F10820F900F9036
:100670000F90CF91DF911F910F9108955798E82F18
:10068000F0E0EE0FFF1FE551FF4F208131813093E5
:10069000BE022093BD028093BC021092B902109258
:1006A000B8020895E82FF92F2191222369F05D996E
:1006B00007C089EE9DEF02C00197B1F35D9BFCCFAF
:1006C0002CB92191222399F708955D9908C029EE4C
:1006D0003DEF03C02150304021F05D9BFBCF8CB932
:1006E00008958FEF9FEF0895EF92FF920F931F935E
:1006F000DF93CF9300D00F92CDB7DEB77C0110927D
:10070000B7021092B60280918601909187010097FE
:1007100079F58091B6029091B7028E159F0540F54C
:100720008E010F5F1F4F07C08091B6029091B702F4
:100730008E159F05E8F48091B6029091B702B8013A
:100740004AE050E00E94E00E8EE061E0A8010E94C5
:100750006E0E8FEF91EEA4E081509040A040E1F743
:1007600000C0000080918601909187010097E1F21E
:100770008091860190918701181619068CF41092C9
:1007800087011092860121E030E0C9010F900F909F
:100790000F90CF91DF911F910F91FF90EF900895EF
:1007A00057981092BB021092BA028091BA029091AF
:1007B000BB029093B9028093B80210928701109205
:1007C00086018091860190918701909389018093A1
:1007D0008801E091BA02F091BB02E657FE4F108209
:1007E00020E030E0D2CFEF92FF920F931F93DF9380
:1007F000CF9300D00F92CDB7DEB77C015798809190
:10080000F5009091F6009093BE028093BD0285E0C2
:100810008093BC021092B9021092B802E8E4F1E0B1
:100820002191222369F05D9907C089EE9DEF02C0F6
:100830000197B1F35D9BFCCF2CB92191222399F74D
:10084000E62FF72F8191882371F05D9908C029EE7A
:100850003DEF03C021503040A9F35D9BFBCF8CB925
:100860008191882391F7E0E7F0E08191882371F08E
:100870005D9908C029EE3DEF03C021503040A9F337
:100880005D9BFBCF8CB98191882391F7579A109289
:10089000B7021092B602809186019091870100976D
:1008A00079F58091B6029091B7028630910540F5B6
:1008B0008E010F5F1F4F07C08091B6029091B70263
:1008C00086309105E8F48091B6029091B702B801A4
:1008D0004AE050E00E94E00E8EE061E0A8010E9434
:1008E0006E0E8FEF91EEA4E081509040A040E1F7B2
:1008F00000C0000080918601909187010097E1F28D
:100900008091860190918701181619060CF082C01B
:10091000109287011092860157988091ED00909176
:10092000EE009093BE028093BD0281E08093BC02F2
:100930001092B9021092B802EE2DFF2D21912223C0
:1009400069F05D9907C089EE9DEF02C00197B1F390
:100950005D9BFCCF2CB92191222399F75D9907C0AB
:1009600089EE9DEF02C0019721F05D9BFCCF8AE1EB
:100970008CB9579A1092B7021092B60280918601F4
:1009800090918701009779F58091B6029091B70216
:100990008E31910540F58E010F5F1F4F07C080918A
:1009A000B6029091B7028E319105E8F48091B602BB
:1009B0009091B702B8014AE050E00E94E00E8EE04C
:1009C00061E0A8010E946E0E8FEF91EEA4E08150CD
:1009D0009040A040E1F700C0000080918601909116
:1009E00087010097E1F280918601909187011816A6
:1009F000190684F4109287011092860181E090E03C
:100A00000F900F900F90CF91DF911F910F91FF905A
:100A1000EF90089557981092BB021092BA028091FD
:100A2000BA029091BB029093B9028093B8021092DF
:100A300087011092860180918601909187019093A1
:100A4000890180938801E091BA02F091BB02E657D8
:100A5000FE4F1082D5CF882309F45FC090E02FEFBE
:100A600031EE44E0215030404040E1F700C000004A
:100A70002FEF31EE44E0215030404040E1F700C01C
:100A800000002FEF31EE44E0215030404040E1F7CC
:100A900000C000002FEF31EE44E0215030404040D4
:100AA000E1F700C000002FEF31EE44E0215030406C
:100AB0004040E1F700C000002FEF31EE44E021504C
:100AC00030404040E1F700C000002FEF31EE44E03D
:100AD000215030404040E1F700C000002FEF31EEE0
:100AE00044E0215030404040E1F700C000002FEFCB
:100AF00031EE44E0215030404040E1F700C00000BA
:100B00002FEF31EE44E0215030404040E1F700C08B
:100B100000009F5F981708F4A2CF08950F931F93CA
:100B2000DF93CF9300D00F92CDB7DEB757981092D6
:100B3000BB021092BA028091BA029091BB029093CC
:100B4000B9028093B80210928701109286018091B9
:100B50008601909187019093890180938801E091AB
:100B6000BA02F091BB02E657FE4F1082579880916F
:100B7000ED009091EE009093BE028093BD0281E063
:100B80008093BC021092B9021092B802EDE5F1E038
:100B90002191222369F05D9907C089EE9DEF02C083
:100BA0000197B1F35D9BFCCF2CB92191222399F7DA
:100BB000579A1092B7021092B602809186019091D6
:100BC0008701009779F58091B6029091B7028A303B
:100BD000910540F58E010F5F1F4F07C08091B6024F
:100BE0009091B7028A309105E8F48091B602909115
:100BF000B702B8014AE050E00E94E00E8EE061E0EA
:100C0000A8010E946E0E8FEF91EEA4E081509040FB
:100C1000A040E1F700C0000080918601909187011B
:100C20000097E1F2809186019091870118161906CC
:100C30004CF510928701109286018091BA02909132
:100C4000BB02019797FD0FC0FC01E657FE4F2081C4
:100C50002D3031F02A3021F02F3411F02B34A9F54A
:100C6000019797FFF1CF85579E4FDC011C9220E042
:100C700030E0C9010F900F900F90CF91DF911F913D
:100C80000F91089557981092BB021092BA0280916A
:100C9000BA029091BB029093B9028093B80210926D
:100CA000870110928601809186019091870190932F
:100CB000890180938801E091BA02F091BB02E65766
:100CC000FE4F108220E030E0D4CFFC01E557FE4F0C
:100CD000108218161906B4F420918F012A30A9F059
:100CE00040E050E00AC09A0120573E4FFA01E65713
:100CF000FE4F65816A3009F4BCCF4F5F5F4F4817E4
:100D000059078CF320E030E0B4CF20E931E0B1CFD7
:100D10008091BA029091BB02019797FD2CC0FC0113
:100D2000E657FE4F20812D30B9F32A30A9F32F3436
:100D300099F32B3489F3FC01E557FE4F1082181606
:100D40001906ACF420918F012A30E9F040E050E020
:100D500009C09A0120573E4FFA01E657FE4F6581C0
:100D60006A3079F04F5F5F4F4817590794F320E0DE
:100D700030E0C901089585579E4FFC01108220E0A4
:100D800030E0C901089520E931E0FBCF2091BA029B
:100D90003091BB022150304037FD0CC0F901E657BD
:100DA000FE4F80818D30B1F38A30A1F38F3491F3FF
:100DB0008B3481F3F901E557FE4F1082C901089584
:100DC0008AE891E008950F931F93DF93CF9300D0AB
:100DD0000F92CDB7DEB757981092BB021092BA02AD
:100DE0008091BA029091BB029093B9028093B802AD
:100DF000109287011092860180918601909187015F
:100E00009093890180938801E091BA02F091BB022E
:100E1000E657FE4F108257988091ED009091EE00BA
:100E20009093BE028093BD0281E08093BC02109239
:100E3000B9021092B802E2E5F1E02191222369F0B3
:100E40005D9907C089EE9DEF02C00197B1F35D9BEC
:100E5000FCCF2CB92191222399F7579A1092B7020F
:100E60001092B6028091860190918701009779F5E2
:100E70008091B6029091B7028530910540F58E01C0
:100E80000F5F1F4F07C08091B6029091B702853067
:100E90009105E8F48091B6029091B702B8014AE05A
:100EA00050E00E94E00E8EE061E0A8010E946E0E0C
:100EB0008FEF91EEA4E081509040A040E1F700C098
:100EC000000080918601909187010097E1F2809166
:100ED000860190918701181619067CF410928701FB
:100EE0001092860121E030E0C9010F900F900F9021
:100EF000CF91DF911F910F91089557981092BB02E7
:100F00001092BA028091BA029091BB029093B902FA
:100F10008093B80210928701109286018091860119
:100F2000909187019093890180938801E091BA02A2
:100F3000F091BB02E657FE4F108220E030E0D4CFA4
:100F40001F920F920FB60F9211242F933F938F93FE
:100F50009F93EF93FF935F9BFECF2CB18091BA02DA
:100F60009091BB02FC01E657FE4F208301969093BF
:100F7000BB028093BA028091BA029091BB0231E029
:100F80008B32930724F01092BB021092BA02809128
:100F9000BD029091BE02E091B802F091B902E80F53
:100FA000F91F3081321779F01092B9021092B8020D
:100FB000FF91EF919F918F913F912F910F900FBED5
:100FC0000F901F9018952091B8023091B9022F5FB1
:100FD0003F4F3093B9022093B802E091B802F091EC
:100FE000B902E80FF91F8081882311F71092B90226
:100FF0001092B8028091BC02843041F081E090E010
:1010000090938701809386015798D2CF8091EB000F
:101010009091EC009093BE028093BD021092BC02AE
:10102000C7CF1F920F920FB60F9211248F939F93E9
:101030008091B6029091B70201969093B702809387
:10104000B60288B7806188BF9F918F910F900FBEC5
:101050000F901F9018950E94DB080E94C10D0E94FE
:1010600077098FEF91EEA4E081509040A040E1F726
:1010700000C000000E9457098FEF91EEA4E081505C
:101080009040A040E1F700C0000080E060E048E64A
:1010900051E00E946E0E81E00E942B058EB58D609E
:1010A0008EBD8DE38BBD89E08ABD1DBC1CBC89B79C
:1010B000806189BF8FEC90E061E070E00E944900A0
:1010C0000E947E0081E00E943E030E9457090EC0EC
:1010D00080E061E04DE751E00E946E0E81E00E94E9
:1010E0002B050E94570981E00E942B050E94A10058
:1010F00089EF90E00E94520385E090E00E94740323
:10110000009731F380E061E047E751E0E5CF982FA9
:10111000907F9BBBD99ADB9AEFE9FFE03197F1F71B
:1011200000C00000DB98D998EFE9FFE03197F1F7B4
:1011300000C0000090E082959295907F9827807F74
:1011400098278BBBD99ADB9A8FE99FE00197F1F73B
:1011500000C00000DB98D998EFE9FFE03197F1F784
:1011600000C000000895982F907F9BBBDB9AEFE9A9
:10117000FFE03197F1F700C00000DB98EFE9FFE0F6
:101180003197F1F700C0000090E082959295907F32
:101190009827807F98278BBBDB9A8FE99FE0019788
:1011A000F1F700C00000DB98EFE9FFE03197F1F7BD
:1011B00000C0000008958FE59AEE0197F1F700C096
:1011C00000001BBA1BBA8AB3806F8ABB8AB38E60D9
:1011D0008ABB80E38BBBDB9AEFE9FFE03197F1F745
:1011E00000C00000DB98EFE9FFE03197F1F700C0A5
:1011F00000008BBBDB9A8FE99FE00197F1F700C0FD
:101200000000DB98EFE9FFE03197F1F700C0000044
:1012100080E28BBBDB9AEFE9FFE03197F1F700C08A
:101220000000DB98EFE9FFE03197F1F700C0000024
:101230008BBBDB9A8FE99FE00197F1F700C00000BC
:10124000DB98EFE9FFE03197F1F700C0000080E89C
:101250008BBBDB9A8FE99FE00197F1F700C000009C
:10126000DB98EFE9FFE03197F1F700C000001BBA0F
:10127000DB9A8FE99FE00197F1F700C00000DB984F
:10128000EFE9FFE03197F1F700C0000080EE8BBB83
:10129000DB9A8FE99FE00197F1F700C00000DB982F
:1012A000EFE9FFE03197F1F700C0000008951BBAA5
:1012B000DB9A8FE99FE00197F1F700C00000DB980F
:1012C0008FE99FE00197F1F700C0000080E18BBB40
:1012D000DB9A8FE99FE00197F1F700C00000DB98EF
:1012E0008FE99FE00197F1F700C0000008951BBA55
:1012F000DB9A8FE99FE00197F1F700C00000DB98CF
:101300008FE99FE00197F1F700C0000080E28BBBFE
:10131000DB9A8FE99FE00197F1F700C00000DB98AE
:101320008FE99FE00197F1F700C000000895009752
:10133000B9F1FC012081222399F140E04F5F322F67
:10134000307F3BBBD99ADB9AEFE9FFE03197F1F7A9
:1013500000C00000DB98D998EFE9FFE03197F1F782
:1013600000C0000030E022953295307F3227207F88
:1013700032272BBBD99ADB9AEFE9FFE03197F1F7DF
:1013800000C00000DB98D998EFE9FFE03197F1F752
:1013900000C00000FC01E40FF11D2081222371F642
:1013A0000895623089F1633069F1613049F18068F4
:1013B000982F907F9BBBDB9AEFE9FFE03197F1F725
:1013C00000C00000DB98EFE9FFE03197F1F700C0C3
:1013D000000090E082959295907F9827807F9827D3
:1013E0008BBBDB9A8FE99FE00197F1F700C000000B
:1013F000DB98EFE9FFE03197F1F700C000000895B6
:10140000805CD5CF8C5AD3CF8C5ED1CF423009F4DB
:101410006EC0433009F469C0413009F464C06068AB
:10142000262F207F2BBBDB9AEFE9FFE03197F1F706
:1014300000C00000DB98EFE9FFE03197F1F700C052
:10144000000070E062957295707F7627607F762746
:101450006BBBDB9AEFE9FFE03197F1F700C00000CA
:10146000DB98EFE9FFE03197F1F700C000009C0145
:10147000FC0144914423B1F140E0F9012491322F61
:10148000307F3BBBD99ADB9AEFE9FFE03197F1F768
:1014900000C00000DB98D998EFE9FFE03197F1F741
:1014A00000C0000030E022953295307F3227207F47
:1014B00032272BBBD99ADB9AEFE9FFE03197F1F79E
:1014C00000C00000DB98D998EFE9FFE03197F1F711
:1014D00000C000004F5F9C01240F311DF9015491A1
:1014E000552359F60895605C9ACF6C5A98CF6C5E7C
:1014F00096CF660F660F660F6064FC012491462F3D
:101500004F5F362F307F3BBBDB9AEFE9FFE031972F
:10151000F1F700C00000DB98EFE9FFE03197F1F749
:1015200000C0000070E062957295707F7627607F42
:1015300076276BBBDB9AEFE9FFE03197F1F700C04C
:101540000000DB98EFE9FFE03197F1F700C0000001
:10155000322F307F3BBBD99ADB9AEFE9FFE031971E
:10156000F1F700C00000DB98D998EFE9FFE0319770
:10157000F1F700C0000030E022953295307F32272D
:10158000207F32272BBBD99ADB9AEFE9FFE0319716
:10159000F1F700C00000DB98D998EFE9FFE0319740
:1015A000F1F700C00000FC0131962491642F6F5FB9
:1015B000342F307F3BBBDB9AEFE9FFE03197F1F747
:1015C00000C00000DB98EFE9FFE03197F1F700C0C1
:1015D000000050E042955295507F5427407F542799
:1015E0004BBBDB9AEFE9FFE03197F1F700C0000059
:1015F000DB98EFE9FFE03197F1F700C00000322FF0
:10160000307F3BBBD99ADB9AEFE9FFE03197F1F7E6
:1016100000C00000DB98D998EFE9FFE03197F1F7BF
:1016200000C0000030E022953295307F3227207FC5
:1016300032272BBBD99ADB9AEFE9FFE03197F1F71C
:1016400000C00000DB98D998EFE9FFE03197F1F78F
:1016500000C00000FC0132962491462F4F5F362FC8
:10166000307F3BBBDB9AEFE9FFE03197F1F700C039
:101670000000DB98EFE9FFE03197F1F700C00000D0
:1016800070E062957295707F7627607F76276BBBDE
:10169000DB9AEFE9FFE03197F1F700C00000DB983B
:1016A000EFE9FFE03197F1F700C00000322F307F03
:1016B0003BBBD99ADB9AEFE9FFE03197F1F700C025
:1016C0000000DB98D998EFE9FFE03197F1F700C00F
:1016D000000030E022953295307F3227207F32277C
:1016E0002BBBD99ADB9AEFE9FFE03197F1F700C005
:1016F0000000DB98D998EFE9FFE03197F1F700C0DF
:101700000000FC0133962491642F6F5F342F307FEB
:101710003BBBDB9AEFE9FFE03197F1F700C0000037
:10172000DB98EFE9FFE03197F1F700C0000050E0EF
:1017300042955295507F5427407F54274BBBDB9AEC
:10174000EFE9FFE03197F1F700C00000DB98EFE927
:10175000FFE03197F1F700C00000322F307F3BBB34
:10176000D99ADB9AEFE9FFE03197F1F700C000006A
:10177000DB98D998EFE9FFE03197F1F700C000005E
:1017800030E022953295307F3227207F32272BBBE5
:10179000D99ADB9AEFE9FFE03197F1F700C000003A
:1017A000DB98D998EFE9FFE03197F1F700C000002E
:1017B000FC0134962491462F4F5F362F307F3BBB80
:1017C000DB9AEFE9FFE03197F1F700C00000DB980A
:1017D000EFE9FFE03197F1F700C0000070E062959B
:1017E0007295707F7627607F76276BBBDB9AEFE977
:1017F000FFE03197F1F700C00000DB98EFE9FFE070
:101800003197F1F700C00000322F307F3BBBD99AEF
:10181000DB9AEFE9FFE03197F1F700C00000DB98B9
:10182000D998EFE9FFE03197F1F700C0000030E010
:1018300022953295307F3227207F32272BBBD99AD1
:10184000DB9AEFE9FFE03197F1F700C00000DB9889
:10185000D998EFE9FFE03197F1F700C00000FC01F3
:1018600035962491642F6F5F342F307F3BBBDB9A1A
:10187000EFE9FFE03197F1F700C00000DB98EFE9F6
:10188000FFE03197F1F700C0000050E0429552951B
:10189000507F5427407F54274BBBDB9AEFE9FFE092
:1018A0003197F1F700C00000DB98EFE9FFE03197D6
:1018B000F1F700C00000322F307F3BBBD99ADB9A92
:1018C000EFE9FFE03197F1F700C00000DB98D9980D
:1018D000EFE9FFE03197F1F700C0000030E022951A
:1018E0003295307F3227207F32272BBBD99ADB9A63
:1018F000EFE9FFE03197F1F700C00000DB98D998DD
:10190000EFE9FFE03197F1F700C00000FC013696E7
:101910004491262F2F5F362F307F3BBBDB9AEFE9B8
:10192000FFE03197F1F700C00000DB98EFE9FFE03E
:101930003197F1F700C0000070E062957295707FFA
:101940007627607F76276BBBDB9AEFE9FFE0319764
:10195000F1F700C00000DB98EFE9FFE03197F1F705
:1019600000C00000342F307F3BBBD99ADB9AEFE9EF
:10197000FFE03197F1F700C00000DB98D998EFE95C
:10198000FFE03197F1F700C0000050E0429552951A
:10199000507F5427407F54274BBBD99ADB9AEFE9FD
:1019A000FFE03197F1F700C00000DB98D998EFE92C
:1019B000FFE03197F1F700C000000796FC01849129
:1019C000922F907F9BBBDB9AEFE9FFE03197F1F715
:1019D00000C00000DB98EFE9FFE03197F1F700C0AD
:1019E000000030E022953295307F3227207F322769
:1019F0002BBBDB9AEFE9FFE03197F1F700C0000065
:101A0000DB98EFE9FFE03197F1F700C00000982F75
:101A1000907F9BBBD99ADB9AEFE9FFE03197F1F712
:101A200000C00000DB98D998EFE9FFE03197F1F7AB
:101A300000C0000090E082959295907F9827807F6B
:101A400098278BBBD99ADB9A8FE99FE00197F1F732
:101A500000C00000DB98D998EFE9FFE03197F1F77B
:101A600000C000000895882321F190E030E120EECD
:101A70003BBBDB9AEFE9FFE03197F1F700C00000D4
:101A8000DB98EFE9FFE03197F1F700C000002BBBD6
:101A9000DB9AEFE9FFE03197F1F700C00000DB9837
:101AA000EFE9FFE03197F1F700C000009F5F981762
:101AB000F8F20895882321F190E030E120E83BBB63
:101AC000DB9AEFE9FFE03197F1F700C00000DB9807
:101AD000EFE9FFE03197F1F700C000002BBBDB9A84
:101AE000EFE9FFE03197F1F700C00000DB98EFE984
:101AF000FFE03197F1F700C000009F5F9817F8F200
:101B000008951BBADB9A8FE99FE00197F1F700C0B7
:101B10000000DB988FE99FE00197F1F700C000001B
:101B200080EE8BBBDB9A8FE99FE00197F1F700C055
:101B30000000DB988FE99FE00197F1F700C00000FB
:101B400008951BBADB9A8FE99FE00197F1F700C077
:101B50000000DB988FE99FE00197F1F700C00000DB
:101B600080EF8BBBDB9A8FE99FE00197F1F700C014
:101B70000000DB988FE99FE00197F1F700C00000BB
:101B800008951BBADB9A8FE99FE00197F1F700C037
:101B90000000DB988FE99FE00197F1F700C000009B
:101BA00080EC8BBBDB9A8FE99FE00197F1F700C0D7
:101BB0000000DB988FE99FE00197F1F700C000007B
:101BC00008951BBADB9A8FE99FE00197F1F700C0F7
:101BD0000000DB988FE99FE00197F1F700C000005B
:101BE00080E88BBBDB9A8FE99FE00197F1F700C09B
:101BF0000000DB988FE99FE00197F1F700C000003B
:101C000008951BBADB9A8FE99FE00197F1F700C0B6
:101C10000000DB988FE99FE00197F1F700C000001A
:101C200080EC8BBBDB9A8FE99FE00197F1F700C056
:101C30000000DB988FE99FE00197F1F700C00000FA
:101C40000895882319F190E020E12BBBDB9AEFE99E
:101C5000FFE03197F1F700C00000DB98EFE9FFE00B
:101C60003197F1F700C000001BBADB9AEFE9FFE003
:101C70003197F1F700C00000DB98EFE9FFE0319702
:101C8000F1F700C000009F5F9817F8F208958823CD
:101C900021F190E030E120E43BBBDB9AEFE9FFE08B
:101CA0003197F1F700C00000DB98EFE9FFE03197D2
:101CB000F1F700C000002BBBDB9AEFE9FFE03197A2
:101CC000F1F700C00000DB98EFE9FFE03197F1F792
:101CD00000C000009F5F9817F8F20895623009F481
:101CE0006DC0633009F468C0613009F463C0806876
:101CF000982F907F9BBBDB9AEFE9FFE03197F1F7DC
:101D000000C00000DB98EFE9FFE03197F1F700C079
:101D1000000090E082959295907F9827807F982789
:101D20008BBBDB9A8FE99FE00197F1F700C00000C1
:101D3000DB98EFE9FFE03197F1F700C000004115B3
:101D40005105B9F1FA018081882399F120E02F5FD4
:101D5000982F907F9BBBD99ADB9AEFE9FFE03197F0
:101D6000F1F700C00000DB98D998EFE9FFE0319768
:101D7000F1F700C0000090E082959295907F98273F
:101D8000807F98278BBBD99ADB9A8FE99FE00197D8
:101D9000F1F700C00000DB98D998EFE9FFE0319738
:101DA000F1F700C00000FA01E20FF11D80818823E5
:101DB00071F60895805C9BCF8C5A99CF8C5E97CF3B
:101DC000FB019F01E8944230C4F04532B4F44A303C
:101DD00029F497FB1EF4909581959F4F642F7727E8
:101DE0000E94110F805D8A330CF0895D8193CB01D5
:101DF0000097A1F716F45DE251931082C9010C948B
:101E0000010FDC01FC01672F71917723E1F7329715
:101E100004C07C916D9370836291AE17BF07C8F3C5
:101E20000895AA1BBB1B51E107C0AA1FBB1FA61721
:101E3000B70710F0A61BB70B881F991F5A95A9F773
:0E1E400080959095BC01CD010895F894FFCFD8
:101E4E00436865636B204E6574776F726B2E2E0040
:101E5E00220D000D0A004F4B0D0A002B4352454731
:101E6E003A20302C310D0A0043616C6C20526561B2
:101E7E0064790D0A0052494E470D0A002B434D540A
:101E8E00493A003E20004E4F524D414C20504F5784
:101E9E00455220444F574E0D0A00496E76616C69CB
:101EAE0064004C69676874206F6E004C69676874D3
:101EBE00206F666600537461747573002B3838306A
:101ECE003139313131393339303100730076007B9D
:101EDE000088009C00A300A60041540D0041544808
:101EEE000D00415445300D0041542B435245473FA0
:101EFE000D0041542B434D47463D310D0041542BAF
:101F0E00434E4D493D322C312C302C302C300D00AF
:101F1E0041542B43504D533D22534D222C22534DB1
:101F2E00222C22534D220D0041542B434D47533D3D
:101F3E00220041542B434D47443D310D0041542B5B
:101F4E00434D47523D310D00496E697469616C69AC
:101F5E007A696E672E2E004154206F6B004154201B
:061F6E006661696C0000D1
:00000001FF
